:020000040800F2
:10000000E0070020A1010008D72C00083F250008C8
:10001000D52C0008D71100080D32000800000000A0
:100020000000000000000000000000003D2E00085D
:10003000D911000800000000112E00083F2E000812
:10004000BB010008BB010008BB010008BB010008A0
:10005000BB010008BB010008BB010008BB01000890
:10006000BB010008BB010008BB010008BB01000880
:10007000BB010008BB010008BB010008BB01000870
:10008000BB010008BB010008BB010008BB01000860
:10009000BB010008BB010008BB010008BB01000850
:1000A000BB010008BB010008BB010008BB01000840
:1000B000BB010008BB010008BB010008BB01000830
:1000C000BB010008BB010008BB010008BB01000820
:1000D000BB010008BB010008BB010008BB01000810
:1000E000BB010008BB010008BB01000800F002F8DA
:1000F00000F047F80AA090E8000C82448344AAF17B
:100100000107DA4501D100F03CF8AFF2090EBAE878
:100110000F0013F0010F18BFFB1A43F0010318473B
:100120005C4700007C470000103A24BF78C878C1C3
:10013000FAD8520724BF30C830C144BF04680C60ED
:10014000704700000023002400250026103A28BF35
:1001500078C1FBD8520728BF30C148BF0B60704739
:10016000662904F06082002070471FB500F0F6FA9F
:1001700004000020002103F0A5FBE0601FBD10B5C6
:1001800010BD00F0EBFB1146FFF7EFFF03F096FA0E
:1001900000F009FC03B4FFF7F2FF03BC00F04CFCD5
:1001A0000948804709480047FEE7FEE7FEE7FEE70B
:1001B000FEE7FEE7FEE7FEE7FEE7FEE70448054947
:1001C000054A064B70470000A12E0008ED0000080C
:1001D000E0010020E0070020E0030020E003002011
:1001E0000FB41CB5074B06AA7B44694600900598DE
:1001F00000F09BFA0020694600F0AAFA1CBC5DF8EA
:1002000014FB0000650500002DE9F0410E46044690
:10021000002020622046E168884730B3252805D0B9
:10022000D4E901219047206A401CF2E7E1682046AA
:1002300000278847050018D0A5F14100192802D8E9
:1002400020354FF400673246294620462760FFF7E5
:1002500087FF40B1012804D0F61D26F007060836B6
:10026000D8E7361DD6E72846DAE7206ABDE8F081F0
:1002700010B5431C02E010F8011B71B18107FAD1DF
:100280004FF0013202C88C1A8C4314EAC211F9D023
:10029000C01A0A0603D0C01E10BDC01A10BD0A0441
:1002A00001D0801E10BD0902FCD0401E10BD4FF0D1
:1002B000000200B5134694469646203922BFA0E8B6
:1002C0000C50A0E80C50B1F12001BFF4F7AF0907C2
:1002D00028BFA0E80C5048BF0CC05DF804EB8900B3
:1002E00028BF40F8042B08BF704748BF20F8022BF6
:1002F00011F0804F18BF00F8012B7047704770470E
:10030000704770472DE9FF4F0C461E464FF0FF37F0
:100310008BB0D2E90001DDF860800A908A46C1F313
:100320000A5505B93D46002108464FF00000BAF1D4
:10033000000F00F4400005DA00EB80004FF44001AC
:1003400001EA50004FEA9059B9F1010F00DDB946BA
:100350000A9850EA4A000ED044F61050A5F2FF3534
:1003600045432F14B8F1000F1ED07542291E1EDD23
:10037000C9F100021CE0B8F1010F4FF0000001D0FC
:10038000302103E0F24305E02154401CB042FBDB86
:1003900030460022002121540B99C1F80880C1E9A0
:1003A00000200FB0BDE8F08FBD1B6D1CDEE74A4694
:1003B00000DA694206A800F05BFA06AB93E8070092
:1003C00003AB83E8070050460A9900F03CFB8DE838
:1003D0000700A0F500501F3800900398002D0ADD9B
:1003E00042F21F014A460844002303A903906846CD
:1003F00000F0A5FD09E0A0F500504A461F38002393
:1004000003A90390684600F0AFFD8DE807000004E3
:10041000000C03D04FF0FF30410800E01046B8F167
:10042000000F03D00022009215461EE0751E05D471
:1004300000F098F9303262556D1EF9D5B3460122AD
:10044000084302D000227F1C04E02078302801D12C
:1004500000227F1E002A099784D01DE0112D07DAA3
:1004600000F080F9303262556D1C50EA0102F5D17E
:10047000084302D00098C8B10EE00021681E05E0D4
:10048000235C625C63542254401E491C8142F7DBAA
:10049000AB46A81B401E0990002004F80B000B98E7
:1004A000099AC0F80880C0E9002B7AE711264FF0BE
:1004B000000857E72DE9F04F88460446D21D22F088
:1004C000070191B0D1E90001CDE90A0102F09FFED8
:1004D00002460B98C00F01D02D2007E0206881074D
:1004E00001D52B2002E0202101EAC000032A099057
:1004F00001D0072A05DB03464146204600F078F983
:100500000BE12078800601D5E06900E00620B8F113
:10051000650F814606D0B8F1660F18D0B8F1670FA5
:1005200070D131E00020B9F1110F009001DB1123EF
:1005300001E009F101030AAA01A90CA8FFF7E2FEF4
:10054000DDE90C70002609F10105834647E0012032
:100550004B4600904FF000470AAA01A90CA8FFF7EC
:10056000D1FEDDE90DB00C995D46002610B909F108
:1005700001000D18B9EB050003D4C0F1FF3609F1F5
:100580000105A5EB09002BE0B9F1010F01DA4FF0ED
:1005900001090020B9F1110F0090484601DD112337
:1005A00000E003460AAA01A90CA8FFF7ABFEDDE9AB
:1005B0000C704D4600268346207800070AD4AB45D0
:1005C00000DA5D4601A8012D04DD411911F8011C76
:1005D000302907D04F4502DA17F1040F04DA012061
:1005E00082460FE06D1EEEE7002F02DCED1B3E445D
:1005F00003E0781CA84200DD7D1CB81B00F1010A55
:100600004FF000472078000703D4AA4501DB4FF0E4
:10061000FF3A0021B7F1004F0DF143088DF8431068
:1006200024D002202B23002F01DA7F422D230A2120
:10063000021EA0F1010000DC5FB197FBF1FC97FB0B
:10064000F1F201FB1C7C17460CF1300C08F801CDCF
:10065000EEE7A8F1010003702188090501D54521C5
:1006600000E06521A0F1010800F8011C09980FA91C
:10067000A1EB0807FF1D00B10120411901EBEA7051
:10068000A1693844081A401EA0612078C00602D42F
:100690002046AFF30080099828B1D4E901219047A2
:1006A000206A401C20622078C00622D52046AFF385
:1006B00000801EE0002E04DBB34502DD01A8805D52
:1006C00000E03020D4E901219047206A401C2062DC
:1006D000761CAAF101005FEA000A0AD100F03EF898
:1006E000C0680168405CD4E901219047206A401C41
:1006F0002062281EA5F10105DCDC07E0D4E9012118
:1007000018F8010B9047206A401C2062381EA7F1A0
:100710000107F3DC2046AFF30080032011B041E66F
:1007200001694A1C02610878704700B58FB0CDE9B5
:1007300001310021059105497944CDE903101146A5
:100740006846FFF761FD0FB000BD0000E5FFFFFF49
:100750000A6802F8010B0A60704700000048704701
:10076000A001002030B5B0F10A024FEA900E71F1FD
:1007700000034EEA817EB0EB0E0061EB91014FEA7F
:10078000101E4EEA017E10EB0E0041EB11114FEAF4
:10079000102E4EEA016E10EB0E0041EB11214FEAD4
:1007A000104E4EEA014E10EB0E0041EB1141401885
:1007B00041F100014FEAD00040EA41704FEAD10117
:1007C00010EB80054FEA810444EA907444EB010485
:1007D0006D1944EB0404521BA3414FF0000348BFC2
:1007E0000A3200D530BD401C41F1000130BD00008F
:1007F0002DE9F0411F46044603260168072A01F44B
:10080000006004DB08B116A505E016A503E008B1F9
:1008100015A500E015A521F010002060A069C01EFC
:10082000A0610FB1401EA0612046AFF300804FB120
:10083000D4E9012138469047206A401C2062C01C40
:10084000206206E0206AFAE7D4E9012115F8010BDD
:100850009047761EF8D22046AFF30080BDE8F081C5
:100860004E414E006E616E00494E4600696E660054
:100870002DE9F047814616468AB0354878440DC8C0
:100880008DE80D0032487844801C03AC0DC884E824
:100890000D0041F69B300844372190FBF1F290FBAC
:1008A000F1F5A5F1800501FB12041B3C02D5644261
:1008B000012000E00020DFF898A080460027FA44DD
:1008C000AAF1BE0A0EE0E0070AD03246684607EBFE
:1008D000470101230AEB810100F046FB8DE8070088
:1008E00064107F1C002CEED1194F7F44AE3F19E0FD
:1008F000E80715D007EB04100DF1180A90E80E0078
:100900008AE80E00C068F04201D19819089032467A
:10091000012306A903A800F027FB03AB83E8070027
:100920006D10641C002DE3D14FF00103324669467F
:10093000B8F1000F03A802D000F001FB01E000F0C5
:1009400013FBC9E90001C9F808200AB0BDE8F08727
:10095000E43F000000487047800100207546FFF723
:10096000F9FFAE4605006946534620F0070085466C
:1009700018B020B5FFF722FCBDE820404FF000067C
:100980004FF000074FF000084FF0000B21F0070177
:10099000AC46ACE8C009ACE8C009ACE8C009ACE8BA
:1009A000C0098D46704710B50446AFF3008020465D
:1009B000BDE81040FFF7EEBB4FF0013C50F8042BB0
:1009C00051F8043B9A4221D1A2EB0C03934313EA62
:1009D000CC1317D150F8042B51F8043B9A4215D18F
:1009E000A2EB0C03934313EACC130BD150F8042B66
:1009F00051F8043B9A4209D1A2EB0C03934313EA4A
:100A0000CC13DBD04FF00000704700BFD01A01BA02
:100A1000B1FA81F101F0180122FA01F0CB40C1F1E5
:100A20002001DBB2C0B2C01A2CFA01F3D11A9143F3
:100A300011EAC311E6D1704701491820ABBEFEE7A9
:100A40002600020070475FEA400C08BF91F0000FDB
:100A50004FEA8C234FEAC12243EA51514FEA1C501E
:100A600018BF00F5F0404FEA300018BF41F00041D8
:100A70005FEA6C5C00F02980BCF1FF3F08BF40F0EA
:100A800080407047130C06BF12044FF0100C4FF05B
:100A9000000C130E04BF12020CF1080C130F04BF5C
:100AA00012010CF1040C930F04BF92000CF1020C24
:100AB000D30F04BF52000CF1010C11464FF000029D
:100AC000A0F11F00A0EB0C00704711F0004F08BF11
:100AD000704731F000413FF4D5AF0B0C06BF09045D
:100AE0004FF0100C4FF0000C0B0E04BF09020CF17C
:100AF000080C0B0F04BF09010CF1040C8B0F04BF91
:100B000089000CF1020CCB0F04BF49000CF1010C61
:100B1000CCF12003A0EB0C0022FA03F302FA0CF252
:100B200041EA030100F10100704720F07F4C80EAA8
:100B3000030023F07F47ACEB070303F57C5300F081
:100B4000004003F1FF032DE980494FEA154B09B43A
:100B50004FEA144325EA0B4E24EA03480FF2042619
:100B600006EB132749083E785FEA320203FB06676B
:100B7000C7F5000707FB06F64FEA54374FEAD6469B
:100B800006F1020607FB066CCCF1005C4FEA1C473D
:100B90002CEA074C07FB06F40CFB06F504EB1546A4
:100BA0004FEA961634BF00204FF000404FEAD1378D
:100BB00006FB07FC4FEA1C4C0CFB0BF7D21B03FB9C
:100BC0000CF761EB07010CFB0EF7B0EB074072EB83
:100BD00017420CFB08F734BFA2EB0742B2EB074207
:100BE00061EB17414FEA0C444FEA910706FB07FC03
:100BF0004FEA1C4C0CFB0BF7B0EBC74072EB5732C3
:100C000003FB0CF734BFA2EBC742B2EBC74261EB68
:100C100057310CFB0EF7B0EBC70072EB57720CFBB1
:100C200008F734BFA2EBC702B2EBC70261EB577102
:100C3000039F4FEA816141EA921104EBCC044FEA31
:100C4000D1374FEA826206FB07FC42EA90124FEA74
:100C500080604FEA1C4C0CFB0BF7D21B03FB0CF71C
:100C600061EB07010CFB0EF7B0EB074072EB17428C
:100C70000CFB08F734BFA2EB0742B2EB074261EB73
:100C800017414FEA8C554FEA910704EB9C2406FB71
:100C900007FC4FEA1C4C0CFB0BF7B0EBC74072EBA8
:100CA000573203FB0CF734BFA2EBC742B2EBC7428B
:100CB00061EB57310CFB0EF7B0EBC70072EB5772CC
:100CC0000CFB08F734BFA2EBC702B2EBC70261EB23
:100CD000577115EB4C254FEA816141EA92114FEAB9
:100CE00082624FEAD13742EA901206FB07FC44F1D8
:100CF00000044FEA80604FEA1C4C0CFB0BF7D21B40
:100D000003FB0CF761EB07010CFB0EF7B0EB0740A0
:100D100072EB17420CFB08F734BFA2EB0742B2EBB1
:100D2000074261EB174115EB1C154FEA813141EA8F
:100D300092414FEA823242EA90424FEA80304FEAD3
:100D40000C7644F1000448EA03434EEA0B484FF0A6
:100D5000000EB2EB080C71EB030724BF6246394664
:100D60004EEB0E0E4FF0000B0018524149414BEB79
:100D70000B0BB2EB080C71EB03077BF1000B24BFEC
:100D8000624639464EEB0E0E4FF0000B00185241F2
:100D900049414BEB0B0BB2EB080C71EB03077BF1FA
:100DA000000B24BF624639464EEB0E0E51EA020795
:100DB00018BF46F0010616EB0E7655F1000254F10D
:100DC000000103D5BDE88901BDE80088BDE88901BF
:100DD000BDE80048B619524141EB0101A3F10103FE
:100DE000704780807F7E7D7C7B7A79787776767598
:100DF0007473727171706F6E6E6D6C6C6B6A6A6910
:100E00006868676666656464636362616160605FA9
:100E10005F5E5E5D5D5C5C5B5B5A5A595958585722
:100E2000575656555555545453535252525151508A
:100E300050504F4F4F4E4E4D4D4D4C4C4C4B4B4BDD
:100E40004A4A4A4949494848484747474746464623
:100E5000454545444444444343434342424242415E
:100E60004141002B9C4630D477002BD01CB54FEA73
:100E7000370703B44FF010004FF01001BAF1000F24
:100E800006D0BCF1000FDCBF40F0080040F00801C4
:100E90004FF000000FBCBDE810400BF1010BBBF19F
:100EA000010F08BF5FEA170722BF12F1010211F11B
:100EB00001014FF0004143F1000300F0004043EA1C
:100EC00000007047F9D35708D0E746EA064613F109
:100ED000400F4FEA16461FDD13F1200FDFBF164308
:100EE0000A46002120335B42BED0C3F1200746EA08
:100EF000064602FA07F74FEA164646EA0706C3F126
:100F0000200722FA03F201FA07F721FA03F14FF062
:100F1000000342EA0702A7E746EA020646EA064657
:100F20004FEA164646EA0106BCBF46EA0646360CBC
:100F30004FF000034FF000024FF0000194E72DE95D
:100F4000804C9A46934670B491E8380007C831EA5D
:100F5000400C48BF34EA430C03D5FFF7E6FDFFF72A
:100F600080FFF0BCBDE8008C2DE9804C9A4693468A
:100F700070B491E8380007C810F0804F08BF13F034
:100F8000804F03D100F005F8FFF76BFFF0BCBDE820
:100F9000008C20F07F4780EA030023F07F4C07EBB2
:100FA0000C03A3F57C5300F00040A3F1FE0392F084
:100FB000000F00F0B38095F0000F00F077802DE96E
:100FC00001494FEA11404FEA144621EA004800FB6C
:100FD00006FC24EA064708FB06F607FB08F800FBB8
:100FE00007F718EB06484CEB164C4FEA124B18EB80
:100FF00007484FEA15464CEB174022EA0B4E0BFB15
:1010000006FC25EA06470EFB06F607FB0EFE0BFB69
:1010100007F71EEB064E4CEB164C4FF000061EEB8E
:10102000074E4CEB174B18EB0B0840F1000018EB88
:101030000E0B58EB000840F100008F1A4FF0000132
:101040003CBFC943661B14BFB5EB040C00213CBF79
:10105000C943F61B4FEA17444EEA8E0E27EA0445B1
:101060004FEA1C4704FB07622CEA074C05FB07F715
:101070000CFB05F604FB0CFC16EB074642EB174293
:1010800016EB0C4642EB1C421BEB060658EB020229
:10109000414146EA9E0601D5BDE80189B619524193
:1010A00041EB0101A3F10103BDE801894FEA1445B9
:1010B0004FEA114724EA054621EA074C05FB07F4ED
:1010C00006FB07F70CFB06F105FB0CFC11EB0741D7
:1010D00044EB17444FEA124711EB0C4144EB1C441C
:1010E00022EA074C05FB07F206FB07F70CFB06F6A6
:1010F00005FB0CFC16EB074642EB174216EB0C46C1
:1011000042EB1C456A1854F1000148BF7047B619FC
:10111000524141EB0101A3F10103704795F0000F2B
:1011200037D04FEA11424FEA144721EA024624EA37
:10113000074C02FB07F106FB07F70CFB06F402FB6A
:101140000CFC14EB074441EB17414FEA154714EB35
:101150000C4441EB1C4125EA074C02FB07F506FB5A
:1011600007F70CFB06F602FB0CFC16EB074645EBFB
:10117000174516EB0C4645EB1C42121951F10001C4
:1011800048BF7047B619524141EB0101A3F1010379
:1011900070474FEA14454FEA114724EA054621EA11
:1011A000074C05FB07F106FB07F70CFB06F24FF0B7
:1011B000000605FB0CFC12EB074241EB174112EB5A
:1011C0000C4251EB1C4148BF7047921841EB0101A2
:1011D000A3F101037047FEE77047000070B50446B5
:1011E00000F00CF90546601C02D004480078044465
:1011F00000F004F9401BA042FAD370BD6C0000203F
:101200002DE9F84FDFF8B8910024A9F1040B23462B
:101210000F2709F1040AABF1040EC9E00125A5402E
:101220002A40AA427DD1674ED1F804C0ACEB060833
:10123000B44532D014DCBCF1030F3AD009DCBCF168
:10124000000F2AD0BCF1010F1CD0BCF1020F31D12C
:101250001DE0BCF1110F17D0BCF1120F2AD119E01B
:10126000B8F5881F19D006DCB8F5803F15D0B8F561
:10127000801F1FD111E0B8F5001F0ED0B8F5041F74
:1012800018D10AE0CB6815E0CB681B1D12E0CB68D3
:1012900008330FE0CB680C330CE08B682BB1012BCB
:1012A0004FF0080303D0456104E0042302E0056128
:1012B00000E00023FF2A01D8064601E000F1040601
:1012C0004FEA840501D9A5F12005D6F8008007FA78
:1012D00005FC28EA0C0803FA05F548EA0508C6F8F3
:1012E00000804D68ED0062D5374DAE6946F00106CD
:1012F000AE61AD6924F0030605F001050095334D9C
:1013000006EB050CDCF80850A607360F07FA06F8BE
:1013100025EA0805DFF8B880404503D14FF0000802
:1013200017E044E0DFF8AC80404502D14FF00108FF
:101330000FE0DFF8A480404502D14FF0020808E03A
:10134000DFF89880404502D14FF0030801E04FF0EC
:10135000040808FA06F848EA0508CCF808804D6841
:10136000D9F80060ED024D4601D5164300E09643E2
:101370002E604D68DAF80060AD02554601D516437F
:1013800000E096432E604D68DBF80060AD035D46DB
:1013900001D5164300E096432E604D68DEF80060EC
:1013A000ED03754601D5164300E096432E60641C9C
:1013B0000D682A46E5407FF431AFBDE8F88F0000A4
:1013C000080401400000111000100240000001401C
:1013D00000080140000C01400010014000140140D1
:1013E000C26821EA02030A4043EA024101617047F0
:1013F0000AB1016170470904FBE7000001488068F9
:10140000704700006C00002070B5040025D094F8EF
:101410003D00002520B984F83C50204600F078FAC1
:10142000242084F83D002068016821F0010101605A
:101430002068016841F4004101602068016821F4DE
:101440000041016000F0BCFB4D4A6168914201D847
:101450004C4900E04C49884201D2012070BD4B4903
:101460002368B0FBF1F15E6826F03F060E435E6034
:101470006368934206D94FF4967359434FF47A73D5
:10148000B1FBF3F12368491C1E6A26F03F06314385
:1014900019626168914210D84900401EB0FBF1F218
:1014A000521CC2F30B02042A01D2042022E0B0FB3A
:1014B000F1F0401CC0F30B001CE0A268F2B301EB9A
:1014C000C10303EB0116431EB3FBF6F35B1C43F4AD
:1014D00080431B0549D092B301EBC10202EB01111D
:1014E000401EB0FBF1F0401CC0F30B0040F4804004
:1014F00040F400402168CA694CF6FF739A431043D8
:10150000C861D4E9071001432068026822F0C002D4
:1015100011430160D4E9030101432068826848F265
:10152000FF339A4311438160D4E9050108432168E0
:10153000CA6822F0FF021043C86001E00EE016E026
:101540002068016841F0010101602564202084F8D1
:101550003D00256384F83E50002070BD01EB41063C
:10156000431EB3FBF6F35B1CB3E70120C2E701EBBC
:101570004101401EB0FBF1F0401CC0F30B00B7E787
:10158000A086010080841E0000093D0040420F003B
:101590002DE9FF4F83B00025DDE910799A46934687
:1015A0000446DDF848800095FFF728FF064694F8CA
:1015B0003D0020287CD11923012285492046009630
:1015C00001F0D4F80028F5D194F83C0001286FD040
:1015D000012084F83C0020680168C90703D1016834
:1015E00041F0010101602068016821F4006101609F
:1015F000222084F83D00402084F83E002564676284
:10160000A4F82A90608D20857248E062CDE90086BA
:1016100053465A462046049900F0AAFF00287DD17F
:10162000208DDFF8B491202768B1012814D002285A
:10163000206801681ED041F4806101602068416922
:1016400080690090B6E02068416981690091016875
:1016500041F400710160ADE02068016821F480610F
:10166000016072B62068416981690091016841F4A6
:1016700000710AE041F40061016072B620684169BE
:1016800081690091016821F48061016062B691E096
:10169000032868D801280CD0022843464FF00002E6
:1016A0004946204600960FD001F060F8B0BB10E02C
:1016B0008BE032464146204601F0FEF870BB2068C0
:1016C0000069616A08706CE001F050F830BB72B6D6
:1016D00034E02068016821F48061016072B62068FE
:1016E0000069616A0870606A401C6062208D401E5B
:1016F0002085608D401E6085384846F2A81100683C
:10170000B0FBF1F0C0EBC00000EB80000090401E89
:10171000009008D020684069C04300E029E04007FD
:101720000CD50098F3E744F8305F6773A573206920
:1017300040F02000206162B625731AE0206801683D
:1017400041F40071016020680069616A0870606A94
:10175000401C6062218D491E2185618D491E618575
:1017600062B621681BE032464146204601F0A4F8EB
:1017700018B1012007B0BDE8F08F20680069616AE8
:101780000870606A401C6062218D491E2185618D50
:10179000491E618521684A69D24352070AD4096902
:1017A0000170606A401C6062208D401E2085608D43
:1017B000401E6085208D00287FF46AAF84F83D705C
:1017C00084F83E5084F83C50D4E70220D2E7000071
:1017D000020010000000FFFF04000100780000205C
:1017E0002DE9FF4F83B09A46DDE9119793460446F1
:1017F000DDF84080FFF702FE054694F83D00202802
:101800007FD11923012240492046009500F0AEFF08
:10181000002876D194F83C00012872D0012084F889
:101820003C0020680168C90703D1016841F001014B
:1018300001602068016821F400610160212084F8C2
:101840003D00402084F83E0000262664C4F8248031
:10185000A4F82A90608D20852C48E062CDE90075BF
:1018600053465A462046049900F000FF70B930E014
:101870002A463946204601F057F858B1206C042812
:1018800004D12068016841F400710160012007B0B3
:10189000BDE8F08F606A216800780861606A401CCA
:1018A0006062218D491E89B22185628D521E62853A
:1018B00022685369DB435B070BD469B10078106180
:1018C000606A401C6062208D401E2085608D401E35
:1018D0006085208D0028CBD12A463946204600F06D
:1018E00019FF0028CAD154F83D0B016841F400717A
:1018F0000160202004F81E09E67766770020C6E71D
:10190000FFE70220C3E70000020010000000FFFF15
:1019100010B586B0002100910191029103910068F9
:101920001349884222D1134CA06940F00800A061FD
:10193000A069694600F0080004904FF440700090E0
:1019400012200190032003900B48FFF759FC0B482D
:10195000416841F0E06141F002014160E06940F41A
:101960000010E061E06900F40010049006B010BDC2
:101970000054004000100240000C014000000140F3
:101980000248816802781144816070476C00002031
:10199000074810B5016841F010010160032000F014
:1019A00067F80F2000F006F800F024F8002010BDC2
:1019B0000020024070B50D4D04464FF47A7128782E
:1019C000B1FBF0F00A490968B1FBF0F000F0CEFA83
:1019D00048B9102C07D200222146501E00F028F8EA
:1019E00000206C6070BD012070BD00006C00002004
:1019F000780000200C4808B5816941F0010181613F
:101A0000816901F001010091C16941F08051C1611A
:101A1000C06900F0805000900448416821F0E06106
:101A200041F00071416008BD00100240000001401B
:101A3000F0B40E4B1B680C46C3F30223C3F1070539
:101A4000042D00D90425191D072901D2002300E027
:101A5000DB1E012606FA05F1491E214099409E40F1
:101A6000761E16403143F0BC01F0E5BB0CED00E002
:101A7000064900F0070208684FF6FF03184040EAE5
:101A80000220034A10430860704700000CED00E09C
:101A90000000FA052DE9F0470F46050061D0434EDE
:101AA000306800F00700B84209D2306820F0070023
:101AB00038433060306800F00700B84251D12868E0
:101AC0003B4C810712D5400703D5606840F4E060C5
:101AD00060602878000703D5606840F4605060605B
:101AE0006068A96820F0F000084360602878C007AB
:101AF00028D06868012810D02168022810D08907F2
:101B000000292EDA616821F0030101436160FFF7CB
:101B100075FC804641F288390DE021688903EFE7C2
:101B20008901EDE7FFF76AFCA0EB0801494502D9FE
:101B30000320BDE8F0876068696800F00C00B0EB36
:101B4000810FEFD1306800F00700B8420BD9306840
:101B500020F0070038433060306800F00700B842DA
:101B600001D00120E5E72878400705D56068E968DD
:101B700020F4E060084360602878000706D56068BC
:101B8000296920F4605040EAC100606000F038F834
:101B90006168084AC1F30311515CC84006490860F6
:101BA00006480068FFF706FF0020C2E70020024059
:101BB000001002402C470008780000207000002030
:101BC0000448054900684968044AC1F30221515C90
:101BD000C840704778000020001002403C470008D1
:101BE0000448054900684968044AC1F3C221515CB0
:101BF000C840704778000020001002403C470008B1
:101C00000E4A51680E4801F00C03042B11D0082B2A
:101C10000FD10C48C1F38343C903C05C0AD5516896
:101C2000084AC1F34041921E515C054A5043B0FB43
:101C3000F1F070470449484370470000001002402B
:101C400000127A001C47000800093D002DE9F84FFA
:101C5000040070D02078C04DC00749D06868C0F338
:101C60008100012807D06868C0F38100022809D1EB
:101C70006868C00306D52868800339D560680028E5
:101C8000E7D035E06068B0F5803F0BD010B1B0F51B
:101C9000A02F11D0286820F480302860286820F414
:101CA000802002E0286840F480302860606890B1AD
:101CB000FFF7A4FB06460AE0286840F4802028606D
:101CC000F0E700BFFFF79AFB801B642873D82868F1
:101CD0008003F7D50CE0FFF791FB064605E000BF57
:101CE000FFF78CFB801B6428F0D828688003F7D4AA
:101CF00020789A4E80074FF001094FF0000839D53F
:101D0000686810F00C0F07D06868C0F381000228E3
:101D100009D16868C00306D42868800714D52069F3
:101D2000012808D110E02069B0B1C6F80090FFF793
:101D300065FB074605E00AE1FFF760FBC01B0228D0
:101D4000C4D828688007F7D52868616920F0F800B2
:101D500040EAC10028600DE0C6F80080FFF74EFBA6
:101D6000074604E0FFF74AFBC01B022823D8286877
:101D70008007F7D4207800072CD57948A169D9B11C
:101D8000C0F80090FFF73AFB074604E0FFF736FB88
:101D9000C01B02280FD8686A8007F7D571484FF436
:101DA000FA510068B0FBF1F0009000BF0098411EAE
:101DB0000091FAD20EE080E0C0F80080FFF71EFB31
:101DC000074604E0FFF71AFBC01B022875D8686AB3
:101DD0008007F7D42078400760D5E8690027C00065
:101DE00008D4E86940F08050E861E869012700F014
:101DF000805000905C480168C90513D4016883468F
:101E000041F480710160FFF7F9FA824606E000BFF5
:101E1000FFF7F4FAA0EB0A0064284ED8DBF80000C4
:101E2000C005F5D5E06801280AD008B1052813D00F
:101E3000286A20F001002862286A20F0040002E0ED
:101E4000286A40F001002862E06841F2883B98B1BE
:101E5000FFF7D4FA82460BE0286A40F004002862BB
:101E6000EEE700BFFFF7CAFAA0EB0A0159455AD8BE
:101E7000286A8007F6D50CE0FFF7C0FA824605E035
:101E8000FFF7BCFAA0EB0A0159454CD8286A800735
:101E9000F6D41FB1E86920F08050E861E06988B3AA
:101EA0006968C1F38101022944D00228C6F8608024
:101EB00004D0FFF7A3FA044638E034E0FFF79EFAB7
:101EC000074604E0FFF79AFAC01B02282BD82868BF
:101ED0008001F7D4206AB0F5803F05D16868A16819
:101EE00020F4003008436860D4E9080108436968B9
:101EF00021F4741108436860C6F86090FFF77EFA19
:101F0000044606E025E000BFFFF778FA001B022830
:101F100009D828688001F7D51BE000BFFFF76EFAEB
:101F2000001B022802D90320BDE8F88F2868800131
:101F3000F4D40EE00128F7D06868226A00F48031FA
:101F4000914204D1616A00F47010884201D00120EE
:101F5000EAE70020E8E700000010024000004242EB
:101F600080044242780000200070004010B5401EFE
:101F7000B0F1807F01D3012010BD4FF0E0246061FB
:101F80000F21601701F057F90020A06107202061A0
:101F9000002010BD10B590F83C20012A22D001226B
:101FA00080F83C20CA688C6822F4407222434C6856
:101FB00022F4806222430C6822F4006222430C69FE
:101FC00022F4805222434C6922F400522243C96910
:101FD000002322F480420A4301684A6480F83C30BE
:101FE000002010BD022010BD70B590F83C20012AE1
:101FF00026D0012480F83C40022280F83D2003686E
:102000005A689D6822F070060A6832435A600D4B88
:1020100002689A4208D0B2F1804F05D00A4B9A422A
:1020200002D00A4B9A4204D1496825F08003194333
:10203000916080F83D40002180F83C10084670BD5A
:10204000022070BD002C0140000400400008004048
:1020500010B5040003D094F83D0010B107E0012052
:1020600010BD002084F83C00204600F01FF802203C
:1020700084F83D00211D206800F014FF012084F841
:10208000460084F83E0084F83F0084F8400084F85D
:10209000410084F8420084F8430084F8440084F846
:1020A000450084F83D00002010BD000008B5006820
:1020B0000649884208D10648816941F4006181617E
:1020C000806900F40060009008BD0000002C014011
:1020D0000010024070B5044690F83C00002501282D
:1020E00017D0012684F83C60022084F83D00206867
:1020F000826822F0770222F47F42826008685028CA
:1021000038D00DDC20284FD005DC90B3102811D139
:102110004AE0022070BD302846D040280AD13BE07A
:1021200060282FD070280DD0B0F5805F03D0B0F5B7
:10213000005F12D0012584F83D60002084F83C0047
:10214000284670BDCB68D1E90121206800F0EDFE82
:102150002068816841F0770109E0CB68D1E901216D
:10216000206800F0E2FE2068816841F480418160CF
:10217000E1E719E0CA684968206800F08BFF502148
:10218000206806E0CA684968206800F094FF602172
:10219000206800F0D4FECEE7CA684968206800F0E5
:1021A00079FF40212068F4E7226801461046F0E7F5
:1021B00000B585B000210091019102910391006862
:1021C0000B49884212D10B48816941F004018161B9
:1021D0008069694600F0040004904FF4706000903C
:1021E0000220019003900448FFF70AF805B000BDF3
:1021F000002C0140001002400008014070B5044668
:1022000090F83C0000260D4601280FD0012084F8EC
:102210003C006AB1042A1DD0082A2FD00C2A3FD0D6
:102220000126002084F83C00304670BD022070BDBD
:10223000206800F08DFE2068816941F0080181610D
:102240002068816921F004018161206881692A691F
:10225000114311E0206800F0A3FE2068816941F479
:10226000006181612068816921F480618161206859
:1022700081692A6941EA02218161D2E7206800F080
:10228000BBFE2068C16941F00801C1612068C169D5
:1022900021F00401C1612068C1692A69114311E07C
:1022A000206800F0D5FE2068C16941F40061C16179
:1022B0002068C16921F48061C1612068C1692A690F
:1022C00041EA0221C161ACE710B5040003D094F8E3
:1022D0003D0010B107E0012010BD002084F83C0053
:1022E000204600F01EF8022084F83D00211D2068E1
:1022F00000F0D8FD012084F8460084F83E0084F800
:102300003F0084F8400084F8410084F8420084F8DB
:10231000430084F8440084F8450084F83D00002020
:1023200010BD704710B50446022249B104290ED0F1
:10233000082913D094F84100012816D0012010BDBF
:1023400094F83E000128F9D184F83E200FE094F87B
:102350003F000128F2D184F83F2008E094F84000C3
:102360000128EBD184F8402001E084F841200122CB
:10237000206800F0CDFD0F492068884203D1426CEF
:1023800042F4004242642068884208D0B0F1804F95
:1023900005D00949884202D00849884204D18168A1
:1023A00001F00701062903D0016841F00101016035
:1023B000002010BD002C0140000400400008004037
:1023C00070B5040004D094F84100002510B106E077
:1023D000012070BD84F84050204600F023F82420EE
:1023E00084F841002068C16821F40051C160204692
:1023F00000F074FE2068016921F4904101612068B9
:10240000416921F02A0141612068C16841F400510D
:10241000C1606564202084F8410084F8420065634F
:10242000002070BD30B585B0002400940194029462
:1024300003940068174988422AD11748816941F4FA
:1024400080418161816901F480410491816941F099
:10245000080181618069114D00F00800049040205E
:102460000090022001900320039069462846FEF761
:10247000C7FE8020CDE90004694628460294FEF795
:10248000BFFE0748416841F0E06141F0040141604E
:1024900005B030BD0038014000100240000C014082
:1024A000000001402DE9F843044690F841001F4622
:1024B00016460D46202802D00220BDE8F8837DB1E3
:1024C00076B100206064212084F84100FEF796FF79
:1024D000A6848046E684A068B0F5805F02D003E061
:1024E0000120EAE7206910B12E4600250EE0002603
:1024F0000CE08021204600F04DFEA0B9AEB116F8E8
:10250000010B21684860E08C401EE084E08C43466B
:102510004FF0000200970028EBD14FF04001204619
:1025200000F038FE30B10320C7E735F8020BC0F3E6
:102530000800E6E7202084F841000020BDE7FEE720
:1025400001684A69D24352050FD46FF480624A6130
:10255000002140F8301F202242738173026942F04B
:1025600004020261017301207047002070470000DF
:102570002DE9F84F0446006889460B9D016898468E
:10258000174641F4806101602068016841F4807160
:10259000016000954FF0011B0022594620460A9B1E
:1025A00000F0E4F84FF4007A40B120680068C005FC
:1025B00001D5C4F840A00320BDE8F88F216809F0D8
:1025C000FE0008612B46284920460A9A00F016F9B9
:1025D000F0BB20684169806900902A4620460A992C
:1025E00000F0A2F940B1206C04283AD120680168BB
:1025F00041F40071016034E0FEB2B8F1010F09D07E
:102600002168380A08612A4620460A9900F08CF9A8
:102610000028E8D1206806612A4620460A9900F081
:1026200083F90028DFD12068016841F480710160DE
:1026300000950022594620460A9B00F097F8002892
:10264000B3D1216809F0FF0040F00100086100E00B
:1026500007E02B46044920460A9A00F0CFF80028EC
:10266000AAD00120A8E70000020001002DE9F843EC
:10267000044600680D46DDE908970168984616464D
:1026800041F4807101604B4600224FF00111204659
:10269000009700F06BF848B120680068C00502D5CB
:1026A0004FF4007020640320BDE8F883216805F032
:1026B000FE0008613B464A461549204600F09EF858
:1026C00088B920684169806900903A4649462046A9
:1026D00000F02AF948B1206C042804D12068016870
:1026E00041F4007101600120DEE7F5B2B8F1010F9D
:1026F00009D02168300A08613A464946204600F070
:1027000013F90028E7D1206805610020CCE700001C
:102710000200010070B516460D4604461EE0204634
:10272000FFF70EFF08B1012070BD681C16D0FEF740
:1027300065FE801BA84200D885B920684069C04367
:1027400040070BD5002044F8300F20216173A0739F
:10275000216941F0200121612073E4E7206840698C
:10276000C0434007DBD4002070BD00002DE9F047D6
:10277000984617460D460446C1F30746DDF82090FB
:102780002AE000BFB8F1FF3F26D0FEF737FEA0EBEE
:102790000901414502D8B8F1000F1DD12068012E72
:1027A00016D0806925EA00000004000C12D0002039
:1027B000B84211D1002044F8300F20216173A0737A
:1027C000216941F02001216120730120BDE8F087DB
:1027D0004069E7E70120EBE72068012E0AD0806915
:1027E00025EA00000004000C06D00020B842C9D041
:1027F0000020EBE74069F3E70120F7E72DE9F04718
:10280000984616460D4604464FF000094FF0200A40
:10281000C1F3074723E020684069C043400515D451
:102820002068016841F40071016021686FF48060E4
:102830004861C4F8309084F83DA084F83E90216C43
:1028400041F00401216484F83C9021E0701C06D022
:10285000FEF7D4FDA0EB0800B04203D816B1012F5B
:102860001FD021E02068012F15D0806925EA0000E3
:102870000004000C18D000BF44F8309F84F80DA06D
:1028800084F80E90216941F02001216184F80C90B8
:102890000120BDE8F087406925EA00000004000C33
:1028A000EAD12068406901E02068806925EA0000DB
:1028B0000004000CAFD1ECE72DE9F0410025904673
:1028C0000E460446202728E04069C043C0060CD4C9
:1028D00054F8301B6FF01000486144F810596777C6
:1028E000A577206A2062257714E0FEF787FDA0EB2C
:1028F0000800B04200D886B920684069C04340064D
:102900000BD544F8305F6773A573206940F0200051
:10291000206125730120BDE8F08120684169C94329
:102920004906D1D40020F6E770B516460D46044698
:102930001EE02046FFF704FE08B1012070BD681CB0
:1029400016D0FEF75BFD801BA84200D885B9206831
:102950004069C04300060BD5002044F8300F202109
:102960006173A073216941F0200121612073E4E7C4
:1029700020684069C0430006DBD4002070BD000021
:1029800070B50C46054608210648FFF7CBFC0C2124
:102990000448FFF7C7FC03480168CD63006804647E
:1029A00070BD0000F0000020F0B585B0012604A83D
:1029B000CDE900064FF47A7533467522D021029591
:1029C0001F48FEF7E5FD9DF81000682835D100246A
:1029D00003AF8DF80C400097CDE9016501236B2210
:1029E000D0211748FEF7FCFE07208DF80C00009759
:1029F000CDE9016501231922D0211148FEF7F0FE2F
:102A00008DF80C400097CDE9016501231C22D021EF
:102A10000B48FEF7E5FE8DF80C400097CDE9016507
:102A200001231B22D0210648FEF7DAFE0548446543
:102A30008465C46504664466846605B0F0BD000024
:102A40009C00002000000020F0B585B04FF47A72A1
:102A5000062103A88DE8070001233B22D021184856
:102A6000FEF796FDBDF80C00164C40BA00B260802F
:102A7000BDF80E1049BA0EB2A680BDF8101049BAC2
:102A80000DB2E58001F06EF96FF00D073A4601F0E6
:102A9000FEFD00F02DFF2063304601F063F93A4659
:102AA00001F0F5FD00F024FF6063284601F05AF9BB
:102AB0003A4601F0ECFD00F01BFFA06305B0F0BD4D
:102AC0009C00002000000020F0B585B04FF47A7221
:102AD000062103A88DE8070001234322D0211948CD
:102AE000FEF756FDBDF80C00174C40BA00B220812D
:102AF000BDF80E1049BA0EB26681BDF8101049BA81
:102B00000DB2A58101F02EF9104F00223B4600F0D6
:102B1000D1FF00F0EDFEE063304601F023F9002222
:102B20003B4600F0C7FF00F0E3FE2064284601F0BA
:102B300019F900223B4600F0BDFF00F0D9FE6064A9
:102B400005B0F0BD9C000020000000200060604047
:102B500070B586B000241C4800940194029403943C
:102B6000816941F010018161816901F010010491D6
:102B7000816941F020018161816901F020010491A6
:102B8000816941F004018161816901F004010491CE
:102B9000816941F00801816180690C4E00F00800F4
:102BA0004FF400550490002229463046FEF720FCE1
:102BB00001200095CDE901040220039069463046CA
:102BC000FEF71EFB06B070BD001002400010014071
:102BD00030B595B000240F9410941194129413946E
:102BE0001C2168461494FDF762FB202107A8FDF71D
:102BF0005EFB3748354901604F21C0E9011440F2BE
:102C0000E731C0E9031444618461FFF721FA08B198
:102C100072B6FEE74FF480500F900FA92C48FFF7D3
:102C200059FA08B172B6FEE72948FFF74DFB08B123
:102C300072B6FEE7139413A925481494FFF7D4F94C
:102C400008B172B6FEE76020009040F28335CDE90E
:102C50000154039404940594002269461C48069488
:102C6000FFF7CCFA08B172B6FEE7042269461848AD
:102C70000194FFF7C3FA08B172B6FEE7082269466D
:102C800013480195FFF7BAFA08B172B6FEE70C22B5
:102C900069460F480194FFF7B1FA08B172B6FEE732
:102CA0000794089409944FF400500A94CDE90B401E
:102CB00007A907480E94FFF76DF908B172B6FEE751
:102CC0000348FFF775FA15B030BD0000002C014035
:102CD000F0000020FEE7FEE72DE9FC41434C00F048
:102CE000DBFD04F15801081F00F036FD616D20691D
:102CF00001F024FC054660612946E06901F020FBF3
:102D0000A0642946206A01F01BFBE16C01F062FA25
:102D10000546E064E08901F0CBFA294601F0DCFACF
:102D200001D2E08907E0207801F0C2FAE16C01F0FD
:102D3000D3FB03D2207801F0BBFAE064D4E90501AB
:102D400001F0FCFB0146606A80F0004001F0F8FAF7
:102D500005462065D4E9120101F03CFA294601F04C
:102D600039FA234901F0ECFA0546E08901F0A0FAAE
:102D7000294601F0B1FA05D3207801F099FA2946E5
:102D800001F0AAFB1B486669A661854202DC1A486D
:102D9000854200DA0546284601F0F0F905460F465F
:102DA000304601F0EBF9CDE9005702460B4613A17E
:102DB0001648FDF715FA154800F076FD60694FF4E6
:102DC0009674B0F5000F06DB00212046FFF7D8FD12
:102DD0000021204605E021460020FFF7D1FD2146D5
:102DE0000020BDE8FC4100F015B800000000002004
:102DF000000020410000AF4300007A4325662070A8
:102E000069645F70776D3A2025660A007C000020B7
:102E10007047000070B50C46054600210648FFF7D4
:102E200081FA04210448FFF77DFA034801684D63E5
:102E30000068846370BD0000F00000207047FEF75A
:102E40009FBD30B58FB028216846FDF730FA1421B8
:102E50000AA8FDF72CFA01210804CDE9001000248E
:102E6000029402250491CDE907504FF4E010099037
:102E70006846FEF7EBFE08B172B6FEE70F20CDE91B
:102E80000A054FF48060CDE90C4002210AA80E9497
:102E9000FEF700FE002801D072B6FEE70FB030BD8D
:102EA00070470000F0B50268164B174C174D4FF0F5
:102EB0008047984205D0B84203D0A04201D0A84232
:102EC00003D122F070064A683243984205D0B842D6
:102ED00003D0A04201D0A84203D122F44074CA68B2
:102EE00022434C6922F08002224302608A68C26257
:102EF0000A688262984201D1096901630121416136
:102F0000F0BD0000002C014000040040000800401B
:102F100010B501F01F030121046A99408C4304623B
:102F2000016A9A401143016210BD10B5846842EAFB
:102F3000032224F47F440A432243826010BD826846
:102F400022F070020A4342F00701816070470000DE
:102F500030B5036A026A22F00102026242688469A3
:102F600024F073050C682C4323F002058B682B4377
:102F70000A4DA8420BD123F00805CB6822F4407219
:102F80002B434D6923F0040315438A692A434260A9
:102F9000846149684163036230BD0000002C014038
:102FA00030B5026A036A23F0100303624368846940
:102FB0000D6824F4E64444EA05248D6822F02002DA
:102FC00042EA05120B4DA8420ED1CD6822F08002D4
:102FD00042EA05124D6923F4406343EA85038D6993
:102FE00022F0400243EA85034360846149688163BB
:102FF000026230BD002C014030B5036A026A22F43F
:10300000807202624268C46923F4007324F073057D
:103010000C682C438D6843EA05230C4DA8420ED161
:10302000CD6823F4006343EA05234D6922F440523E
:1030300042EA05128D6923F4806342EA0512426078
:10304000C4614968C163036230BD0000002C0140C7
:1030500030B5046A026A22F4805202624268C3698F
:103060000D6823F4E64343EA05238D6824F40054F5
:1030700044EA0534064DA84204D14D6922F4804249
:1030800042EA85124260C36149680164046230BD4E
:10309000002C014010B5036A046A24F001040462A4
:1030A000846924F0F00444EA021423F00A020A437B
:1030B0008461026210BD10B5036A046A24F0100432
:1030C0000462846923F0A00324F4704444EA0232C9
:1030D00043EA01118261016210BD000070B504462F
:1030E00000680169E26821F44051114301612169DE
:1030F000A0680843616908432168CA6841F20C630B
:103100009A430243CA6020684169A26921F4407170
:10311000114341611E492068884202D1FEF760FDDB
:1031200001E0FEF74DFD00EBC00101EB001260680D
:1031300064218000B2FBF0F3B3FBF1F36FF01806EB
:103140007343B2FBF0F5B2FBF0F605EB83053223D7
:1031500003EB0515B5FBF1F5B6FBF1F605F0F0054F
:1031600005EB0615B2FBF0F6B2FBF0F0B0FBF1F0A8
:103170006FF01802504306EB800003EB0010B0FB29
:10318000F1F0216800F00F002844886070BD000055
:10319000003801402DE9F041984617460E46044696
:1031A000069D27E0681C25D02DB1FEF727F9A0EB7E
:1031B0000800A8421ED920680C3050E8001F21F4F6
:1031C000D07140E80012002AF5D12068143050E890
:1031D000001F21F0010140E80012002AF5D1202053
:1031E00084F8410084F84200002084F84000032065
:1031F000BDE8F0812068006836EA000004D00020B5
:10320000B842CFD00020F3E70120F9E7FEE74900FC
:1032100050EAC12018BF04204A0D18BF40F0010039
:1032200040F2FF72B2EB515F08BF40F0020001288C
:1032300008BF052070470907090E002804DB00F1CC
:10324000E02080F80014704700F00F0000F1E0204B
:1032500080F8141D70472DE9F0414F1E00EBC701A7
:103260000446D1E9000115461E4637F006020DD08E
:103270002A46334600F08EFD7F1E04EBC703D3E9D8
:10328000002300F067FB37F00602F1D1022F25D0B2
:10329000042F13D0062F18BFBDE8F0812A4633460D
:1032A00000F078FDD4E90A2300F054FB2A463346A7
:1032B00000F070FDD4E9082300F04CFB2A463346A9
:1032C00000F068FDD4E9062300F044FB2A463346AB
:1032D00000F060FDD4E9042300F03CFB2A463346AD
:1032E00000F058FDD4E9022300F034FB2A463346AF
:1032F00000F050FDD4E90023BDE8F04100F02ABB06
:10330000012201F0C4B900F025BB0000024A0020F0
:10331000110701F0BCB9000001FDFFFF2DE9F84FD6
:1033200004460D4621F0004000917349814211DCB2
:103330007249884201DC06D12CB120462946BDE8FD
:10334000F84FFFF7DDBF6E48002DCCBF6D496E49C9
:10335000BDE8F88F6D49814211DD6D498142D8BFCA
:103360004FF0FF366DDD20462946FFF750FF042859
:1033700008BFFFF7CBFF20462946BDE8F88F654917
:10338000654F25F00045814233DD6449814219DDF6
:10339000002632464FF080432046294600F0DAFAF4
:1033A00080468A4601222046294601F070F9002213
:1033B0003B4600F0F9FD4246534600F07BFB0446D5
:1033C0000D463EE001260022BA463B4620462946ED
:1033D00000F0C0FA80460F46002253462046294698
:1033E00000F0E2FD42463B4600F064FB04460D4619
:1033F00027E04B4981421BDDDFF828A1022600228D
:1034000053462046294600F0C5FC00223B4600F00A
:10341000A1FA80460F46002253462046294600F076
:10342000C3FD42463B4600F045FB04460D4608E01E
:10343000032622462B4600203B4900F03BFB044676
:103440000D4622462B461046194600F0A3FC8B463B
:10345000824602460B4600F09DFC07460246334872
:1034600088460B4606217844FFF7F5FE52465B4638
:1034700000F090FC82462E488B463A464346052192
:103480007844FFF7E8FE3A46434600F083FC0246E4
:103490000B46002E504659460CDA00F05BFA2246E5
:1034A0002B4600F077FC01B022462B46BDE8F04FDA
:1034B00000F06EBD00F04EFA22462B4600F06AFC8A
:1034C0001C4A7A4402EBC603D3E9002300F06CFDEA
:1034D00022462B4600F068FD174A7A4402EBC603E9
:1034E000D3E9002300F054FD009A002AB8BF81F010
:1034F0000041BDE8F88F0000000010440000F07F9C
:10350000182D4454FB21F93FFB21F9BF0000DC3F9B
:103510000000203E0000F33F0000F03F0000E63FC7
:10352000008003400000F83F0000F0BF4613000099
:1035300004130000A21200006A1200002DE9F04DF1
:103540009446CCF1000423F000464CEA0404524FA8
:1035500046EAD4749A46884621F00042BC4206D816
:10356000454240EA050442EAD474BC4204D9BDE8AD
:10357000F04D6246FFF7C7BEAAF14055A5F17F6541
:1035800055EA0C040BD0022404EAAA74434DDFF878
:1035900010E144EAD87452EA000B04D00CE0BDE814
:1035A000F04DFFF7BBBE002C14BF012CBDE8F08D21
:1035B000022C30D0032C32D056EA0C0B0AD0BE427B
:1035C00020D1BA4209D126F0804622F0804233460B
:1035D000114617E000291ADB25E0DFF8C8B0FB44EC
:1035E000002C04BFDBE90001BDE8F08D012C02BF17
:1035F000DBE9000181F00041BDE8F08D022C0AD02A
:10360000032C0CD0BA4212D1B8F1000F0BDA2348C8
:103610002549BDE8F08D28462449BDE8F08D2846AF
:103620007146BDE8F08D1D482149BDE8F08D921B23
:1036300012153C2AC4BF19481D490EDCBAF1000F0F
:10364000BEBF12F13C0F0020014606DB624600F0CF
:1036500031FA21F00041FFF761FE002C08BFBDE800
:10366000F08D012C04BF81F00041BDE8F08D114ABE
:10367000114B022C07D000F097FC2A46BDE8F04D14
:103680000A4B00F091BC00F08FFC2A46BDE8F04DDB
:10369000064B00F07DBC00000000F07F182D445464
:1036A000FB2109C0FE110000FB21F9BFFB210940ED
:1036B000FB21F93F075C143326A6A13CFEF768F90D
:1036C000FFF7BFFBFFF744FA1F481E4900240160C3
:1036D0001E49C0E901144FF48041C0E9034144612F
:1036E0008461C4610462FDF78FFE08B172B6FEE723
:1036F000FFF76EFA144816499C3001604FF4E1312F
:10370000C0E901140C21C460C0E904418461C461B2
:10371000FEF756FE08B172B6FEE7FFF745F90D4C0D
:103720004FF40055002229462046FDF761FE294648
:103730002046FDF755FEFFF7CFFA5020FDF74EFD6E
:10374000F5E70000005400409C000020A086010026
:1037500000380140001001402DE9F35F474CE16D56
:10376000E06B00F0EBFE0546216E206C00F0E6FEFB
:103770008146284600F002FD414EDFF808813246BE
:10378000434600F007FB05460F46A06A00F0F6FC32
:103790002A463B4600F0DEF800F0AAF8A062484650
:1037A00000F0ECFC3246434600F0F4FA06460D46C3
:1037B000E06A00F0E3FC32462B4600F0CBF800F064
:1037C00097F8E062606E00F0D9FC80460D46A06B71
:1037D00000F0D4FC6FF00B0A524600F058FF06468A
:1037E0000F46606B00F0CAFC524600F050FF3246B4
:1037F0003B46FFF7A3FEDFF890B000225B4600F0E7
:10380000C9FA224A224B00F055F942462B4600F0F5
:10381000CBFB00221F4B00F09DF800F069F8054635
:10382000A06E00F0ABFC80468946A06B00F0A6FCC1
:10383000524600F02CFF06460F46206B00F09EFC1F
:10384000524600F024FF32463B46FFF777FE002247
:103850005B4600F09FFA0D4A0D4B00F02BF94246F3
:103860004B4600F0A1FB00F043F8C4E90A50009A6F
:10387000156001990860BDE8FC9F00000000002071
:1038800066C3F5831502343F00806640182D44540A
:10389000FB2109400080564010B5FFF7D5F8BDE880
:1038A0001040FFF711B9000010B50446FCF7E0FC2A
:1038B000214682B2BDE8104064230148FEF7F2BD04
:1038C0003801002010B500290AD00878002807D058
:1038D00005487844FDF770F8002801D0002010BD9D
:1038E0000248784410BD0000CA0F0000C20F00005B
:1038F00021F00042A2F16052B2F5801F01F00043B6
:1039000028BFD2F17F6C0BD95FEA001C43EAC202E8
:1039100042EB507018BF704728BF20F0010070477D
:10392000B2F5801FBCBF184670474FEA410C1CF52A
:10393000001F02D2084600F0CABD70B500F0D4FAEC
:1039400000000089FFF7F6BF4FF00040A0F58000AF
:103950007047000010B591EA030F48BF83F00043A1
:1039600000F12A83841A71EB030C05D2121943EB80
:103970000C03001B61EB0C01DFF824E14FEA11544A
:10398000A4EB135C1EEA430F18BF9EEA445F73D09A
:1039900023EA0E03DCF1200E21EA045143F48013E4
:1039A00032D322FA0CFE10EB0E0023FA0CFE41EB90
:1039B0000E01CCF1200E03FA0EFE10EB0E0051F1B9
:1039C0000001B1F5801FCCF1200E32D201EB045181
:1039D00012FA0EF2BDE8104058BF7047401C38BFC5
:1039E0005FEA420218BF7047002814BF20F00100B0
:1039F00041F100014FEA410313F5001F38BF704742
:103A0000A1F1C04100F0BEBA012A43EB0302ACF1C0
:103A1000200CDCF11F0E32BF4FF0000E23FA0CF326
:103A200010EB030041EB0451B4EB115FD0D0A1EBDC
:103A3000045101F5801149085FEA300001EB04519F
:103A40000ED350F1000038BF12FA0EFE08D1BDE8C7
:103A50001040C9E7401C38BF5FEA4202CAD1C3E741
:103A6000BDE810404FEA410313F5001F38BF70470F
:103A7000A1F1C04100F086BA9EEA445F08D011EA85
:103A80005E0FBDE8104004BF01F000410020704708
:103A9000BDE8104070B500F027FA00BF64FBBE3EE1
:103AA0000000E0FF02494FF0000000F0BEBD00BF83
:103AB0000000F87F2DE9C04130B4DFF8A0C23CEA35
:103AC000111418BF3CEA131400F0EC8081EA0305DE
:103AD0001CEA111444EAD57418BF1CEA131500F04F
:103AE000C780A4EB05044FF0004545EAC12145EA33
:103AF000C32341EA505143EA525304F17F7499427F
:103B000004F500344FEAC0204FEAC22208BF9042B9
:103B100000F09C804FEA13650FF24016765D4FEA85
:103B2000134506FB05F7C7F1807706FB07F74FEA59
:103B3000D737A7FB03687642C8F58038A7FB06CEC7
:103B400038BFA8F1010807FB08E64FF0000EA6FBFE
:103B5000028CE6FB03CEDCF1000CCEF1004E38BF48
:103B6000AEF1010EA6FB0C584FF000074FF0000518
:103B7000E6FB0E87A1FB08C6A0FB07CE16EB0E06E0
:103B800045F10005E1FB076515F1E04E7EBFA4F5A8
:103B900080345FEA46066D4116F1800745F1000565
:103BA0004FEA17274FEA066647EA0567A6F1DE46A1
:103BB000B6F1805F4FEA15251FD9384624F0010C75
:103BC00005EBC471BCF1FE6F01EB0C1102D8F0BC27
:103BD000BDE8008124425CBF01F5801E9EEAC47FDF
:103BE00002D4F0BCBDE80081244238D4F0BCA1F17D
:103BF000C041BDE8004100F0C5B94FEAD22242EA17
:103C000043524FEAD323A7FB02864FEAD02040EA73
:103C1000415007FB03661EEA0E0F4FEAD12105FB58
:103C2000026658BFA6EB0056B6EB00564FEA520E9E
:103C30004EEAC37E18EB0E0E56EB530EBDD518EBB5
:103C400002085E417F1C55F10005B6E74FF4801570
:103C50004FF000074FF000064FF00008ADE7F0BC52
:103C60004FF0000001F1C04101F00041BDE80081CA
:103C700011EA0C1F0CEA131500D00CE013EA0C1F1C
:103C800000F025804FF00000F0BC81EA030101F054
:103C90000041BDE80081F0BCBDE8004181EA0301BC
:103CA00000F070B9F0BCBDE8004170B500F01CF93F
:103CB000097EFC3E00F007B881EA03014FF00000E6
:103CC00001F00041704781EA030100F05BB9F0BCEC
:103CD000BDE800414FF0000021497047FFFDFBF9AE
:103CE000F7F5F4F2F0EEEDEBE9E8E6E4E3E1E0DE2F
:103CF000DDDBDAD8D7D5D4D3D1D0CFCDCCCBCAC8A1
:103D0000C7C6C5C4C2C1C0BFBEBDBCBBBAB9B8B7C7
:103D1000B6B5B4B3B2B1B0AFAEADACABAAA9A8A8BA
:103D2000A7A6A5A4A3A3A2A1A09F9F9E9D9C9C9B88
:103D30009A99999897979695959493939291919033
:103D40008F8F8E8E8D8C8C8B8B8A898988888787C4
:103D50008685858484838382828181800000FF0739
:103D60000000F87F10F0004248BF4042B0FA80F3F4
:103D700010FA03F10AD0C3F11D0303F580634FEA83
:103D8000415002EB035202EBD12170474FF000008B
:103D900070470000DFF848C170B51CEA111E1EBF55
:103DA0001CEA13159EEA0C0F95EA0C0F00F06F80C9
:103DB00081EA030423EA4C134EEAD47E21EA4C1133
:103DC00041F4801143F48013AE44A1FB024CA0FBEC
:103DD0000365AEF17F7E361955EB0C05A1FB034C54
:103DE0004CF10003A0FB021C16EB0C06654153F1DD
:103DF0000003094218BF46F0010613F4007F0BD1FF
:103E00004FEA03314FEA0530340341EA155140EAE5
:103E100016506FF003020AE04FEAC3214FEAC520B3
:103E2000F40241EA555140EA56506FF0020202EBAB
:103E30002E4201EB025585EACE710AD05FEA440CAE
:103E400018BF24F0004450F1000041F1000120EAC5
:103E5000D47040F2FE7C624500D270BDA84214BF0F
:103E60004FF080444FF04044002E08BF0024BEF1C4
:103E7000806FA8BFA1F1C041BDE8704080F2828090
:103E80004FF0000001F1C04101F0004170479EEA8F
:103E90000C0F0CEA131518BF95EA0C0F06D04FF063
:103EA000000081EA030E0EF0004170BD00F01CF826
:103EB0008900013E00F007B800F009B84FEA430C52
:103EC0005FEA5C5C08D081EA030100F05BB84FEA6E
:103ED000410C5FEA5C5CF6D14FF00000014970478D
:103EE0000000FF070000F87F0EF1020E2EF0030E17
:103EF0005EF8046B364205D4012A43EB030515F541
:103F0000001F12D8012841EB010C1CF5001F0CD832
:103F10000ED14FEAD17C15F5001F0CEB4C0C0CF1C7
:103F2000020C08BF4CEBD37C04E04FF0080C01E01E
:103F30004FEAD37C0CEB4C0526FA05F606F0070693
:103F4000B6F1040C06D20EEB860CBDE870404CF0C6
:103F5000010C6047DFE80CF0090B02024FF0004152
:103F60004FF00000A1F5002170BD19461046012850
:103F700051EB010418BFD4F5001484BF002001F0F8
:103F8000004170BD0808A0F500114FEA31017047EB
:103F900091EA030F10B581F000413FF5E3AC83F0E7
:103FA000004300F009B8000010B591EA030F48BFC4
:103FB00083F000433FF5D6AC841A71EB030C07D2B3
:103FC00012198CF0004C43EB0C03001B61EB0C014D
:103FD000DFF8A4E14FEA1154A4EB135C1EEA430F8F
:103FE00018BF9EEA445F00F0B08023EA6E0352429D
:103FF00021EA0451C3EB6E0338BF5B1EDCF1200ED7
:1040000025D322FA0CFE10EB0E0043FA0CFE41EB16
:104010000E01CCF1200E03FA0EFE10EB0E0051F152
:104020000001CCF1200E29D412FA0EF201EB04515A
:10403000BDE8104058BF7047401C1CBFB2F1004F94
:10404000704700280CBF491C20F00100704712EB9C
:10405000020E43EB030218BF4FF0010E4EEA42027C
:10406000ACF1200CDCF11E0E54D943FA0CFE10EB1F
:104070000E0051F1FF31CCF11E0ED5D50EF1010E1F
:1040800012FA0EFE404141EB010101EB445C5FEA94
:104090005C5C10D910EBDE7001EB045138BFBEF14F
:1040A000004FBDE8104018BF704700280CBF491CE6
:1040B00020F00100704730D24FEAD42C11F50011E6
:1040C00024F400641BD0B1FA81F20B3AA41AA41EA6
:1040D000D2F12003914030FA03F31943904001EBF1
:1040E000CC71002C01EB0451BDE81040A8BF704713
:1040F00001F1C0414FF0000001F000417047B0FAFB
:1041000080F310FA03F100D110BDE41A173C480502
:10411000C90AE4E701EB045110BD491001EB045159
:10412000BDE810404FEA300002E04FF00001704758
:104130004A0008BF0042F8D0B2F5001F28BF704700
:1041400001F000414FF0000070479EEA445F07D045
:1041500011EA5E0FBDE8104004BF00210020704747
:10416000BDE8104070B5FFF7BFFE00BF40DFF63E70
:1041700083F00041104670470000E0FF43004FEA23
:10418000D30C4FEA3C0C43401FBF40070CF1605179
:1041900013F0FE4F70471CF0006F03D100200CF0AD
:1041A000004170470CF0004343EA507010B540EAFC
:1041B000CC0000F046F900BF000000924FEA000179
:1041C000FFF7E0BE4FF000414FF00000A1F50021E5
:1041D0007047000090EA010F48BF81F0004100F1F4
:1041E000B481421A3CBF801A89184FEAD0524FF06E
:1041F0007F4C1CEA410FA2EBD15318BF9CEA026F1F
:1042000000F03B804FF0004C4CEA00204CEA0121CA
:1042100021FA03FC10EB0C0C1ED202F1FF325FEA14
:104220001C2040EBC25038BF70471CF07F0F4FEA94
:10423000400C18BFBCF17F4F38BF7047C3F120035B
:10424000994008BF20F00100BCF17F4F38BF704794
:10425000A0F1C04000F03BB94FEA3C00000A40EB3F
:10426000C25028BF1CF0FF0F4FEA400CE6D018BF29
:10427000BCF17F4F38BF7047EAE79CEA026F05D078
:1042800010EA5C0F08BF00F00040704710B500F066
:10429000D8F800BF64FBBE3E401058BFC0F140409C
:1042A000491058BFC1F140418142EFF3008070478F
:1042B000B0FA80F310FA03F2C3F19D030AD0D905D6
:1042C00001EB1220530638BF704700F1010008BF10
:1042D00020F001007047000050EA010C00F113804B
:1042E0001CF5000F58BFBCF5000F01D48842704781
:1042F00007D710F5000F58BF11F5000F15D48842ED
:104300007047894270471CF5000F04D5BCF5000FBB
:10431000F7D5814270474FF0807C1CEB400F38BFCF
:104320001CEB410F01D28142704710B500F089F8B3
:10433000922449004FF000504FF08051FFF7ACBF7E
:104340004FF47F0C1CEAD0121EBF1CEAD11392EA74
:104350000C0F93EA0C0F00F0478090EA010F48BF62
:1043600042F480724FF0004C4CEA00204CEA0121EC
:1043700002EB0302A0FB0113A2F50002002918BF03
:1043800043F001035B0028BF4FEA330342EB2242B4
:104390005FEA132C4CEBC2502EBFBCEB436FB2F55F
:1043A0007C0F70474FEA036CBCF1004F08BF20F050
:1043B0000100B2F57C0F38BF70470BD582F0FF02C9
:1043C00012F5803FC8BF704700F1C040D8BF00F071
:1043D0000040704700F5000C5FEA4C0C48BF704786
:1043E000B0F1C04000F073B890EA010F0CEAD113AD
:1043F00048BF42F48072624538BF634504D280EA08
:10440000010000F00040704710B500F01AF800BF3E
:104410008900013E00F007B800F009B85FEA410CDE
:104420005FEA1C6C08D080EA010000F050B85FEA37
:10443000400C5FEA1C6CF6D14FF00040A0F5800004
:1044400070470EF1020E2EF0030E5EF8044B24426C
:1044500004D44FEA4102B2F17F4F11D84FEA400332
:10446000B3F17F4F0CD80ED14FEAD07CB2F17F4F21
:104470000CEB4C0C0CF1020C08BF4CEBD17C04E0B3
:104480004FF0080C01E04FEAD17C0CEB4C0324FA0E
:1044900003F404F00704B4F1040C06D20EEB840C10
:1044A000BDE810404CF0010C6047DFE80CF0070855
:1044B00002024FF00040A0F5800010BD0846420007
:1044C00018BFD2F1807288BF00F0004010BDFF21FC
:1044D00041EAD050C005704751EA000C00F113804A
:1044E0001CF5000F58BFBCF5000F01D48142704786
:1044F00007D711F5000F58BF10F5000F15D48142F2
:104500007047894270471CF5000F04D5BCF5000FB9
:10451000F7D5884270474FF0807C1CEB410F38BFC5
:104520001CEB400F01D28842704780EA010081EA0B
:10453000000180EA0100FFF7F8BE000090EA010FD9
:1045400048BF81F000413FF54CAE421A04D882F0DA
:104550000042A0EB020011444FEAD0524FF07F4CD2
:104560001CEA410FA2EBD15318BF9CEA026F4AD05C
:104570004FF0004C4CEA00204CEA012121FA03FCE8
:10458000B0EB0C0C0FD412F0FE0F36D05FEA4C00EB
:104590001DD5001240EBC25038BF70471CF03F0FD2
:1045A00018BF70470BE0A2F101025FEA1C2040EB4C
:1045B000C25038BF70471CF07F0F18BF7047C3F15F
:1045C0002003994014BF401E20F00100704780086E
:1045D0004FEA122308BF7047B0FA80FCA2EB0C022E
:1045E000CCF1280C60FA0CF093EA122F04BF00EB18
:1045F000C25070474FEAC3707047130A5FEADC107D
:1046000008BF7047F6E79CEA026F04D010EA5C0F1F
:1046100008BF0020704710B5FFF713FF40DFF63EDC
:1046200081F000407047FBF745BF0CF00F03092BEA
:1046300008BF082000F059800A2B0BD0082B18BFA8
:10464000704708BF1CF0400F0AD04FF000004FF039
:10465000000170471CF0400F18BF4FF0004070473A
:104660001CF0100F08D020F0704300F07F4242EAA7
:10467000D3014FEA4370704700F0604021F07F4261
:1046800042EA000201F07F4040EA727070474FF04A
:10469000FF0C4CF4E06C1CEA11531CBF9CEA030CA9
:1046A0009445C2BFDA4201EB02517047002B0DD096
:1046B000BCF1000F0FD0002A01F00041A4BF41F06F
:1046C000E04141F07F614FF00000704701F0004190
:1046D0004FF00000704750EA01334FF09B0C18BFB9
:1046E0004CF0806C7FF4DEA970471CF4801F11D061
:1046F0001CF4E02F03D06FEACC31490070474FF033
:104700004050EFF3008222F0704242EA000282F34E
:10471000008870474FF00000704701020203040553
:10472000060708090A0B0C0D0E0F10100000000000
:104730000000000001020304060708090000000051
:1047400001020304000000004FBB610567ACDD3FC0
:10475000182D4454FB21E93F9BF681D20B73EF3FA8
:10476000182D4454FB21F93FE2652F227F2B7A3C20
:10477000075C143326A6813CBDCBF07A8807703CD9
:10478000075C143326A6913CC4EB98999999C9BF4C
:10479000711623FEC671BCBF6D9A74AFF2B0B3BF81
:1047A0009AFDDE522DDEADBF2F6C6A2C44B4A2BF41
:1047B0000D5555555555D53FFF8300922449C23FAD
:1047C0006E204CC5CD45B73F513DD0A0660DB13FE1
:1047D000EB0D76244B7BA93F11DA22E33AAD903FF3
:1047E000000000000000000002400000000000A0E7
:1047F0000000000005400000000000C800000000AC
:104800000C4000000000409C000000001940000027
:104810000020BCBE0000000034400000BFC91B8E59
:1048200000000004B5400000504BCFD06607E2CF37
:10483000010000006C4100003E8251AADFEEA73467
:1048400001000000D9420000DCB5A0E23A301F9719
:10485000FFFFFFFFB4450000FD25A0C8E9A3C14F3D
:10486000FFFFFFFFFF3F000000000080000000008E
:10487000FF3F00000000008000000000B848000872
:10488000000000207C0000002801000834490008D6
:104890007C00002064070000440100081C000000A8
:1048A00043000000F8FFFFFF0C0000000E000000B6
:1048B0000F0000002E0000000500000000000000B6
:1048C00000000000000064000000B442000000008E
:1048D000000000000000803F9A99993F6666A63F5D
:1048E00000000000000000000000000000000000C8
:1048F00000000000000000000000000000000000B8
:1049000000000000000000000000000000000000A7
:104910000000000000000000000000000000000097
:104920000000000001000000100000000000000076
:044930000024F4006B
:04000005080000ED02
:00000001FF
